:020000040800F2
:10000000F0090020C9010008410600084705000862
:100010003D060008710200083712000800000000C9
:10002000000000000000000000000000150B0008A8
:100030007502000800000000FD090008290C0008F6
:10004000E3010008E3010008E3010008E301000800
:10005000E3010008E3010008E3010008E3010008F0
:10006000E3010008E3010008E3010008E3010008E0
:10007000E3010008E3010008E3010008E3010008D0
:10008000E3010008E3010008E3010008E3010008C0
:10009000E3010008E3010008E3010008E3010008B0
:1000A000E3010008E3010008E3010008E3010008A0
:1000B000E30100088D0C0008E3010008E3010008DB
:1000C000E3010008E3010008E3010008E301000880
:1000D000E3010008E90E0008E3010008710F0008C1
:1000E00079020008E3010008E301000800F002F8CB
:1000F00000F05AF80AA090E8000C82448344AAF168
:100100000107DA4501D100F04FF8AFF2090EBAE865
:100110000F0013F0010F18BFFB1A43F0010318473B
:1001200000230000202300000A444FF0000C10F8C8
:10013000013B13F0070408BF10F8014B1D1108BF65
:1001400010F8015B641E05D010F8016B641E01F805
:10015000016BF9D113F0080F1EBF10F8014BAD1C55
:100160000C1B09D16D1E58BF01F801CBFAD505E073
:1001700014F8016B01F8016B6D1EF9D59142D6D3CD
:10018000704700000023002400250026103A28BFF5
:1001900078C1FBD8520728BF30C148BF0B607047F9
:1001A0001FB51FBD10B510BD00F033F81146FFF7A5
:1001B000F7FF01F0E3F800F051F803B4FFF7F2FFA6
:1001C00003BC01F091F80000094880470948004746
:1001D000FEE7FEE7FEE7FEE7FEE7FEE7FEE7FEE7F7
:1001E000FEE7FEE704480549054A064B7047000054
:1001F0002D0C0008ED000008F0030020F00900209D
:10020000F0050020F00500207047704770477047E8
:100210007047754600F028F8AE460500694653461B
:1002200020F00700854618B020B5FFF7DBFFBDE8DA
:1002300020404FF000064FF000074FF000084FF04D
:10024000000B21F00701AC46ACE8C009ACE8C009DE
:10025000ACE8C009ACE8C0098D4670470446AFF36E
:1002600000802046FFF7A9FF004870479003002058
:1002700000BFFEE77047000010B54FF4806000F04B
:1002800055F820B10B480068401C0A4908604FF43B
:10029000806000F045F84FF4006000F047F820B1AE
:1002A00005480068401C044908604FF4006000F0F5
:1002B00037F810BDBC020020C00200200EB500F0CF
:1002C00075F90121084600F0ABFB0A21002000F07F
:1002D0008BF80B21002000F087F84FF4406000906D
:1002E00000208DF8040010208DF8050001208DF805
:1002F0000600684600F02EF84FF4A06000F0E0F928
:1003000028208DF8080001208DF80B0002208DF8C0
:10031000090000208DF80A0002A800F099F90EBD2E
:1003200001490860704700001404014001460020A4
:100330000022074B1B6803EA0102054B14331B68BC
:100340000B4013B10AB1012000E00020704700000B
:1003500000040140002123498279002A3AD00A464C
:10036000126803689A430B461A600A1D12680368F4
:100370009A430B1D1A60027911440A6803681A43F4
:100380000A60184A0832126803689A43154B08330A
:100390001A601A1D126803689A43124B0C331A60D4
:1003A0004279102A0ED11A1F126803681A430D4BA6
:1003B00008331A601A1D126803681A43094B0C337C
:1003C0001A600DE00749427911440A6803681A432C
:1003D0000A6005E0027911440A6803689A430A60DA
:1003E000704700000004014030B500228B071C0F4D
:1003F0000F2303FA04F20B4B8C1053F82430934371
:10040000084C8D1044F8253023468C1053F82430C6
:100410008C07240F00FA04F42343024C8D1044F897
:10042000253030BD080001402DE9F041024600258D
:100430000026002000230024002791F803C00CF0C0
:100440000F0591F803C00CF0100CBCF1000F03D0A5
:1004500091F802C04CEA050591F800C0BCF1000F0C
:1004600031D0146800202BE04FF0010C0CFA00F39F
:10047000B1F800C00CEA03069E4220D183004FF081
:100480000F0C0CFA03F7BC4305FA03FC4CEA040416
:1004900091F803C0BCF1280F06D14FF0010C0CFA03
:1004A00000FCC2F814C00AE091F803C0BCF1480F88
:1004B00005D14FF0010C0CFA00FCC2F810C0401C32
:1004C0000828D1D31460B1F800C0BCF1FF0F34DDAF
:1004D000546800202EE000F1080C4FF0010808FAE3
:1004E0000CF3B1F800C00CEA03069E4221D1830050
:1004F0004FF00F0C0CFA03F7BC4305FA03FC4CEA6F
:10050000040491F803C0BCF1280F05D100F1080CD8
:1005100008FA0CF8C2F8148091F803C0BCF1480F37
:1005200007D100F1080C4FF0010808FA0CF8C2F8E6
:100530001080401C0828CED35460BDE8F081416192
:1005400070470161704700BFFEE7000010B5202131
:100550000748FFF7F6FF80210548FFF7F2FF8021EB
:100560000348FFF7ECFF20210148FFF7E8FF10BD2B
:100570000008014010B520210548FFF7E2FF802167
:100580000348FFF7DCFF80210148FFF7DAFF10BDC9
:100590000008014010B520210348FFF7D2FF2021B9
:1005A0000148FFF7CCFF10BD0008014000B585B041
:1005B0000121042000F034FA0121022000F020FA89
:1005C00004208DF813004FF44060ADF810000320B4
:1005D0008DF8120004A91748FFF726FF44F61F60A4
:1005E000ADF8080040F2CF20ADF804000020ADF8CF
:1005F0000A00ADF8060001A90F4800F023FC012213
:1006000011460D4800F0BCFB1D208DF800000020B5
:100610008DF8010003208DF8020001208DF8030001
:10062000684600F015F80121034800F08CFB05B086
:1006300000BD0000000801400004004000BFFEE7CC
:10064000704710B54FF4A06000F03AF810BD0000FC
:1006500070B5002100230F22C47804B3154C246820
:1006600004F4E064C4F5E064210AC1F10403CA4063
:10067000447804FA03F184781440214309010E4CB4
:100680000678A155047804F01F050124AC400578D4
:100690006D11AD0005F1E025C5F8004109E00478D1
:1006A00004F01F050124AC40044D0678761145F88E
:1006B000264070BD0CED00E000E400E080E100E0C9
:1006C00002490143024A1160704700000000FA0528
:1006D0000CED00E070B5002418E004F1B00000213A
:1006E00000F080F90021084600F07CF9002110207C
:1006F00000F078F9002505E00121002000F072F9F2
:10070000681CC5B2802DF7DB601CC4B2082CE4DB8A
:1007100070BD000008B50121042000F081F9A0207F
:10072000ADF8000010208DF8030003208DF80200C2
:1007300069463C48FFF778FEA0213A48FFF701FFE1
:100740004FF4487000F0F4FD0021AE2000F04AF9AB
:100750000021084600F046F90021102000F042F97F
:100760000021402000F03EF90021B02000F03AF9CD
:100770000021812000F036F90021FF2000F032F93D
:100780000021A12000F02EF90021A62000F02AF976
:100790000021A82000F026F900213F2000F022F9D6
:1007A0000021C82000F01EF90021D32000F01AF922
:1007B0000021084600F016F90021D52000F012F9BA
:1007C0000021802000F00EF90021D82000F00AF965
:1007D0000021052000F006F90021D92000F002F9DF
:1007E0000021F12000F0FEF80021DA2000F0FAF8F4
:1007F0000021122000F0F6F80021DB2000F0F2F8D2
:100800000021302000F0EEF800218D2000F0EAF801
:100810000021142000F0E6F80021AF2000F0E2F8FB
:1008200008BD00000008014070B504460D4605F102
:10083000B000002100F0D6F8102141EA1410002188
:1008400000F0D0F804F00F00002100F0CBF870BDEC
:100850002DE9F04180460E461546002731464046B8
:10086000FFF7E2FF00240AE0124A02EB8511085D5F
:10087000012100F0B7F8781CC7B2601CC4B2102C7C
:10088000F2DB701CC1B24046FFF7CEFF00240CE043
:100890006900491C074A02EB4111085D012100F083
:1008A000A1F8781CC7B2601CC4B2102CF0DBBDE804
:1008B000F0810000380000202DE9F04707460E4681
:1008C0009046994600250024A8F12000C5B27F2F4C
:1008D00002DD0027B01CC6B2B9F1100F24D1314699
:1008E0003846FFF7A1FF002408E004EB0511194A80
:1008F000505C012100F076F8601CC4B2082CF4DBD7
:10090000701CC1B23846FFF78FFF002409E004EBEA
:10091000051108310F4A505C012100F063F8601C9A
:10092000C4B2082CF3DB12E031463846FFF77CFFF7
:1009300000240AE005EB4501074A02EB4101085D8E
:10094000012100F04FF8601CC4B2062CF2DBBDE8B8
:10095000F0870000301E0008081C00082DE9FF5F2A
:10096000074691461E460E9D4FF0000A002435E0D2
:10097000301B401EC1B20A2000F049FDB9FBF0F067
:100980000A21B0FBF1F201FB1208BAF1000F14D1F9
:10099000701EA04211DDB8F1000F0CD1AB4605EB83
:1009A000DB71491001FB0471C8B22B46202201996A
:1009B000FFF782FF10E04FF0010AAB4605EBDB7159
:1009C000491001FB0471C8B208F13001CAB22B46CC
:1009D0000199FFF771FF00BF601CC4B2B442C7DBCE
:1009E000BDE8FF9F70B504460D461DB1E0B200F0B2
:1009F00065FC02E0E0B200F04BFC70BD7047000007
:100A000029B1064AD2690243044BDA6104E0034A81
:100A1000D2698243014BDA61704700000010024046
:100A200029B1064A92690243044B9A6104E0034AE1
:100A300092698243014B9A617047000000100240A6
:100A400030B500210022002400232D4D6D6805F0F3
:100A50000C0121B1042905D0082923D105E0294D35
:100A6000056022E0274D05601FE0254D6D6805F407
:100A70007012234D6D6805F48034022505EB924217
:100A80001CB9214D554305600BE01D4D6D6805F403
:100A900000351DB11C4D5543056002E0194D55430D
:100AA000056002E0174D056000BF00BF144D6D6882
:100AB00005F0F0010909154D6B5C0568DD404560E6
:100AC0000F4D6D6805F4E061090A104D6B5C4568D7
:100AD000DD4085600A4D6D6805F46051C90A0B4D13
:100AE0006B5C4568DD40C560054D6D6805F44041AF
:100AF000890B074D6B5CC568B5FBF3F5056130BD2F
:100B00000010024000127A0000093D0000000020A1
:100B100010000020704710B500F002F810BD000072
:100B20000CB50020019000903348006840F48030FC
:100B30003149086000BF3048006800F40030009080
:100B40000198401C0190009818B90198B0F5A06F69
:100B5000F1D12948006800F4003010B10120009064
:100B600001E0002000900098012843D1234800684C
:100B700040F01000214908600846006820F003009A
:100B800008600846006840F0020008601A484068A3
:100B9000194948600846406848600846406840F483
:100BA000806048600846406820F47C104860084631
:100BB000406840F4E81048600846006840F08070E3
:100BC000086000BF0C48006800F000700028F9D0F1
:100BD0000948406820F0030007494860084640681B
:100BE00040F00200486000BF0348406800F00C007D
:100BF0000828F9D10CBD000000100240002002407E
:100C0000042808D14FF0E021096941F004014FF0B8
:100C1000E022116107E04FF0E021096921F00401B1
:100C20004FF0E022116170477047000010B5134883
:100C3000006840F00100114908600846406810490A
:100C400008400E494860084600680E4908400B49B4
:100C500008600846006820F4802008600846406864
:100C600020F4FE0048604FF41F008860FFF753FF38
:100C70004FF000600449086010BD00000010024001
:100C80000000FFF8FFFFF6FE08ED00E02DE9F84F49
:100C90000121234800F063F800283ED001212048BC
:100CA00000F04EF81F4800681F49096808442821D1
:100CB00090FBF1FA504600F027FE06464FF0333223
:100CC0001A4B00F039FE0446194A1A4B00F0C4FCD6
:100CD000804600F08FFC1849086000F0E5FB1648DC
:100CE000006800F027FF044610200423224600215C
:100CF00000904920FFF732FE102000900F48006856
:100D000040F253710A1A042305214920FFF726FEF9
:100D100000200449086004490860BDE8F88F00001D
:100D200000040040BC020020C00200203333B33F67
:100D30009A9999999999C93FC402002020000020EE
:100D4000CA430282704721B1028842F00102028048
:100D500004E002884FF6FE731A400280704730B5F7
:100D60000246002000230024158A05EA0103958924
:100D700005EA010413B10CB1012000E0002030BDF0
:100D80001AB183890B43838102E083898B4383817A
:100D90007047000070B5002400220023058C4FF638
:100DA000FE7635400584028C8388048B4FF68F7560
:100DB0002C40B51E2C400D882C43751E2A400D89F1
:100DC0002A434D882A43144DA8420BD0134DA84204
:100DD00008D0134DA84205D0124DA84202D0124DA2
:100DE000A84213D14FF6F7752A404D892A434FF692
:100DF000FB752A408D882A434FF6FF652B404FF63E
:100E0000FF552B408D892B43CD892B438380048351
:100E1000CD888586028470BD002C014000340140DD
:100E20000040014000440140004801400A460021C2
:100E3000018B4FF6F7731940114301837047818688
:100E400070470000002202881D4B98420ED01D4BB7
:100E500098420BD0B0F1804F08D01B4B984205D080
:100E60001A4B984202D01A4B984204D14FF68F7316
:100E70001A404B881A43174B984207D0164B98429A
:100E800004D04FF6FF431A40CB881A4302808B8868
:100E900083850B8803850A4B98420BD0094B9842F7
:100EA00008D00E4B984205D00D4B984202D00D4B06
:100EB000984201D10B7A0386012383827047000098
:100EC000002C0140003401400004004000080040B4
:100ED000000C0040001000400014004000400140A1
:100EE000004401400048014010B540F225511D4822
:100EF00000F0E0F810B31B4800F098F9C4B21A48AB
:100F0000008800F40040C8B91748008800F4804009
:100F100060B10A2C03D000201349088020E0124859
:100F2000008840F400401049088019E00D2C06D1DB
:100F30000D48008840F480400B49088010E00A48C2
:100F40000088C0F30D0009490C5407480088401C74
:100F50000549088008460088C72801DD0020088070
:100F600010BD0000003801401C000020C802002015
:100F700010B540F22551464800F09CF8002877D083
:100F8000434800F053F9434908700846007830B1EF
:100F9000012813D002283ED0032876D169E040F220
:100FA0003A714807FFF74BFF4FF4FA7000F0C0F9B1
:100FB00040F252714807FFF742FF66E0364800688A
:100FC00040F2537188420BDC3348006840F24B71A9
:100FD000884205DB30480068401C2F49086012E059
:100FE0002D48006840F24B71884203DA08462A49CE
:100FF000086008E02848006840F25371884202DD2A
:101000000846254908602448008881B24FF0804096
:10101000FFF715FF39E02048006840F2537188421D
:101020000BDC1D48006840F24B71884205DB1A4812
:101030000068401E1849086012E01748006840F236
:101040004B71884203DA08461349086008E01248E9
:10105000006840F25371884202DD08460E4908607C
:101060000D48008881B24FF08040FFF7E8FE0CE0A9
:101070000CE040F25370084908600846008881B2CD
:101080004FF08040FFF7DBFE00BF00BF10BD000047
:1010900000480040B80200202000002021B18289D1
:1010A00042F40052828104E082894DF6FF731A40B7
:1010B0008281704770B5024600240023002500207D
:1010C00040F66A16B14200D100BFC1F3421501F0EB
:1010D0001F03012606FA03F3012D02D1968933403E
:1010E00006E0022D02D1168A334001E0968A334091
:1010F0000C12012606FA04F41688344013B10CB120
:10110000012000E0002070BDF0B503460024002659
:101110000025002040F66A17B94200D100BF1846EA
:10112000C1F3421401F01F06012707FA06F5012C4E
:1011300001D10C3004E0022C01D1103000E0143059
:101140001AB107682F43076002E00768AF430760E2
:10115000F0BD00002DE9F04786B005460E4600249C
:10116000A24600BFA1460027B08900B100BF2F46AC
:101170002C8A4CF6FF700440F08804432C82AC8922
:101180004EF6F3100440B088318908437189084352
:101190000443AC81AC8A4FF6FF400440B08904435D
:1011A000AC8201A8FFF74CFC1F48874202D1DDF852
:1011B00010A001E0DDF80CA0A88900F4004040B1C7
:1011C0000AEBCA0000EB0A1031684900B0FBF1F8E5
:1011D00007E00AEBCA0000EB0A1031688900B0FB97
:1011E000F1F86420B8FBF0F004012009642101FB50
:1011F0001089A88900F4004040B1322000EBC900FA
:10120000B0FBF1F000F00700044308E0322000EBEF
:1012100009106421B0FBF1F000F00F0004432C81B1
:1012200006B0BDE8F087000000380140014688881C
:10123000C0F30800704700BFFEE700002DE9F04151
:1012400005462C4620211148FFF779F9002619E0C0
:10125000274607F08007802F04D180210B48FFF735
:1012600070F903E080210948FFF769F96006040E70
:1012700020210648FFF765F920210448FFF75FF9B0
:10128000701CC6B2082EE3DBBDE8F0810008014007
:1012900010B50446FFF75AF97820FFF7CFFFFFF7A4
:1012A00079F90020FFF7CAFFFFF774F92046FFF72E
:1012B000C5FFFFF76FF9FFF75DF910BD10B50446E4
:1012C000FFF744F97820FFF7B9FFFFF763F94020F3
:1012D000FFF7B4FFFFF75EF92046FFF7AFFFFFF718
:1012E00059F9FFF747F910BD00BF704710B56FF00F
:1012F0000400FFF785FC0A4800680A49B0FBF1F0DA
:10130000094908700846007800EB4001C1EBC010A5
:101310004FF6FF7101EAC0000449088010BD0000CB
:101320002400002000127A00140000201600002083
:101330000146114A12884A434FF0E0235A610022C5
:101340009A611A46126942F001021A6100BF4FF019
:10135000E022106900F001021AB100F48032002A84
:10136000F5D04FF0E022126922F001024FF0E023A5
:101370001A6100229A617047160000204FF416503F
:1013800000F0E4F8FFF7B2FFFFF75BF9FFF70EF9A3
:10139000FEF794FF40F2CF2140F2CF7000F042F808
:1013A00040F2D6614FF08040FFF749FD4FF47A706C
:1013B000FFF7BEFF4FF47A70FFF7BAFF4FF47A7071
:1013C000FFF7B6FF40F26C714FF08040FFF737FD3A
:1013D0004FF47A70FFF7ACFF4FF47A70FFF7A8FF75
:1013E0004FF47A70FFF7A4FF4FF47A70FFF7A0FF75
:1013F0004FF47A70FFF79CFFFFF78CF90A20FFF794
:1014000097FFFFF767F901E000F04EF8FCE710B531
:101410000246012000E050430B00A1F10104E1B2BB
:10142000F9D110BD30B589B005460C4601210846FA
:10143000FFF7E6FA01210520FFF7F2FA18208DF8F0
:1014400023000120ADF8200003208DF8220008A918
:101450001448FEF7E9FFADF81850ADF8144000202D
:10146000ADF81600ADF81A0005A94FF08040FFF75F
:10147000E9FC7020ADF804000120ADF80600002062
:10148000ADF80C0001A94FF08040FFF783FC082164
:10149000C806FFF7CBFC01218807FFF754FC09B011
:1014A00030BD00000008014010B5FFF713F900221D
:1014B00011461046FFF7CCF9012200211220FFF758
:1014C000C7F9022200212420FFF7C2F903220021DC
:1014D0003620FFF7BDF9042200214820FFF7B8F9B4
:1014E00002236D2219466620FFF7E6F902232F2218
:1014F00019466F20FFF7E0F902237322194678207E
:10150000FFF7DAF9002203211046FFF7A1F90122C3
:1015100003211220FFF79CF9052203212420FFF765
:1015200097F9062203213620FFF792F904220321BE
:101530004820FFF78DF9072203215A20FFF788F989
:10154000092203216C20FFF783F910BD10B586B086
:10155000044601218804FFF753FA01210820FFF710
:101560005FFA4FF48060ADF8140018208DF8170072
:1015700003208DF8160005A91C48FEF755FF4FF40F
:101580000060ADF8140004208DF8170005A9174875
:10159000FEF74AFF01940020ADF810000C20ADF8D2
:1015A0000E000020ADF80C00ADF80A00ADF8080000
:1015B00001A90F48FFF7CEFD01210D48FFF76EFD91
:1015C000012240F225510A48FFF79EFD27208DF8A1
:1015D000000001208DF801008DF802008DF8030055
:1015E0006846FFF735F806B010BD0000000C01405A
:1015F0000048004021F00042A2F16052B2F5801F85
:1016000001F0004328BFD2F17F6C0BD95FEA001CC8
:1016100043EAC20242EB507018BF704728BF20F067
:1016200001007047B2F5801FBCBF184670474FEAF3
:10163000410C1CF5001F02D2084600F0E0BA70B55C
:1016400000F024FA00000089FFF7F6BF4FF00040D9
:10165000A0F58000704700002DE9C04130B4DFF8EC
:10166000A0C23CEA111418BF3CEA131400F0EC804D
:1016700081EA03051CEA111444EAD57418BF1CEA78
:10168000131500F0C780A4EB05044FF0004545EAB0
:10169000C12145EAC32341EA505143EA525304F1C0
:1016A0007F74994204F500344FEAC0204FEAC22209
:1016B00008BF904200F09C804FEA13650FF240167D
:1016C000765D4FEA134506FB05F7C7F1807706FB09
:1016D00007F74FEAD737A7FB03687642C8F580388B
:1016E000A7FB06CE38BFA8F1010807FB08E64FF0BC
:1016F000000EA6FB028CE6FB03CEDCF1000CCEF163
:10170000004E38BFAEF1010EA6FB0C584FF000079B
:101710004FF00005E6FB0E87A1FB08C6A0FB07CE35
:1017200016EB0E0645F10005E1FB076515F1E04EED
:101730007EBFA4F580345FEA46066D4116F180074E
:1017400045F100054FEA17274FEA066647EA0567A5
:10175000A6F1DE46B6F1805F4FEA15251FD938465F
:1017600024F0010C05EBC471BCF1FE6F01EB0C1110
:1017700002D8F0BCBDE8008124425CBF01F5801EA8
:101780009EEAC47F02D4F0BCBDE80081244238D474
:10179000F0BCA1F1C041BDE8004100F0C5B94FEA7D
:1017A000D22242EA43524FEAD323A7FB02864FEAF2
:1017B000D02040EA415007FB03661EEA0E0F4FEAB5
:1017C000D12105FB026658BFA6EB0056B6EB0056CA
:1017D0004FEA520E4EEAC37E18EB0E0E56EB530E36
:1017E000BDD518EB02085E417F1C55F10005B6E738
:1017F0004FF480154FF000074FF000064FF000083F
:10180000ADE7F0BC4FF0000001F1C04101F0004134
:10181000BDE8008111EA0C1F0CEA131500D00CE0A2
:1018200013EA0C1F00F025804FF00000F0BC81EAA5
:10183000030101F00041BDE80081F0BCBDE80041BA
:1018400081EA030100F070B9F0BCBDE8004170B559
:1018500000F01CF9097EFC3E00F007B881EA0301A4
:101860004FF0000001F00041704781EA030100F0F1
:101870005BB9F0BCBDE800414FF000002149704762
:10188000FFFDFBF9F7F5F4F2F0EEEDEBE9E8E6E445
:10189000E3E1E0DEDDDBDAD8D7D5D4D3D1D0CFCDCC
:1018A000CCCBCAC8C7C6C5C4C2C1C0BFBEBDBCBB05
:1018B000BAB9B8B7B6B5B4B3B2B1B0AFAEADACAB00
:1018C000AAA9A8A8A7A6A5A4A3A3A2A1A09F9F9EDA
:1018D0009D9C9C9B9A99999897979695959493938C
:1018E000929191908F8F8E8E8D8C8C8B8B8A898923
:1018F00088888787868585848483838282818180A6
:101900000000FF070000F87F10F0004248BF40428F
:10191000B0FA80F310FA03F10AD0C3F11D0303F506
:1019200080634FEA415002EB035202EBD121704732
:101930004FF0000070470000DFF848C170B51CEAA6
:10194000111E1EBF1CEA13159EEA0C0F95EA0C0F20
:1019500000F06F8081EA030423EA4C134EEAD47E40
:1019600021EA4C1141F4801143F48013AE44A1FBF1
:10197000024CA0FB0365AEF17F7E361955EB0C05DA
:10198000A1FB034C4CF10003A0FB021C16EB0C0660
:10199000654153F10003094218BF46F0010613F4F4
:1019A000007F0BD14FEA03314FEA0530340341EA9F
:1019B000155140EA16506FF003020AE04FEAC321C6
:1019C0004FEAC520F40241EA555140EA56506FF003
:1019D000020202EB2E4201EB025585EACE710AD0DB
:1019E0005FEA440C18BF24F0004450F1000041F1BC
:1019F000000120EAD47040F2FE7C624500D270BD46
:101A0000A84214BF4FF080444FF04044002E08BF5E
:101A10000024BEF1806FA8BFA1F1C041BDE87040B5
:101A200080F282804FF0000001F1C04101F00041DE
:101A300070479EEA0C0F0CEA131518BF95EA0C0FBD
:101A400006D04FF0000081EA030E0EF0004170BD99
:101A500000F01CF88900013E00F007B800F009B85A
:101A60004FEA430C5FEA5C5C08D081EA030100F0B6
:101A70005BB84FEA410C5FEA5C5CF6D14FF00000C6
:101A8000014970470000FF070000F87F0EF1020EC9
:101A90002EF0030E5EF8046B364205D4012A43EBA8
:101AA000030515F5001F12D8012841EB010C1CF5A8
:101AB000001F0CD80ED14FEAD17C15F5001F0CEB9E
:101AC0004C0C0CF1020C08BF4CEBD37C04E04FF043
:101AD000080C01E04FEAD37C0CEB4C0526FA05F626
:101AE00006F00706B6F1040C06D20EEB860CBDE834
:101AF00070404CF0010C6047DFE80CF0090B02026B
:101B00004FF000414FF00000A1F5002170BD1946D3
:101B10001046012851EB010418BFD4F5001484BF0E
:101B2000002001F0004170BD0808A0F500114FEA47
:101B300031017047C10DD1F19E0206DB4FEA00234F
:101B400043F0004323FA02F07047004207D54FEA02
:101B50004001B1F1FE4F02D24FF00000704710B5C6
:101B600000F007F849922480002070476FEA2000B7
:101B700070470EF1020E2EF0030E5EF8044B244265
:101B800004D44FEA4102B2F17F4F11D84FEA40032B
:101B9000B3F17F4F0CD80ED14FEAD07CB2F17F4F1A
:101BA0000CEB4C0C0CF1020C08BF4CEBD17C04E0AC
:101BB0004FF0080C01E04FEAD17C0CEB4C0324FA07
:101BC00003F404F00704B4F1040C06D20EEB840C09
:101BD000BDE810404CF0010C6047DFE80CF007084E
:101BE00002024FF00040A0F5800010BD0846420000
:101BF00018BFD2F1807288BF00F0004010BDFF21F5
:101C000041EAD050C005704700000000000000000D
:101C1000002F000000000700070000147F147F144D
:101C200000242A7F2A1200626408132300364955D3
:101C3000225000000503000000001C2241000000AB
:101C400041221C000014083E08140008083E080841
:101C5000000000A06000000808080808000060609C
:101C60000000002010080402003E5149453E0000DB
:101C7000427F4000004261514946002141454B31BD
:101C8000001814127F10002745454539003C4A4989
:101C900049300001710905030036494949360006FB
:101CA0004949291E00003636000000005636000063
:101CB00000081422410000141414141400004122DE
:101CC000140800020151090600324959513E007CB6
:101CD0001211127C007F49494936003E41414122A0
:101CE000007F4141221C007F49494941007F090989
:101CF0000901003E4149497A007F0808087F000039
:101D0000417F4100002040413F01007F08142241F3
:101D1000007F40404040007F020C027F007F0408AB
:101D2000107F003E4141413E007F09090906003E07
:101D30004151215E007F0919294600464949493130
:101D40000001017F0101003F4040403F001F204053
:101D5000201F003F4038403F006314081463000711
:101D60000870080700615149454300007F41410068
:101D700000552A552A55000041417F000004020108
:101D800002040040404040400000010204000020E6
:101D900054545478007F4844443800384444442024
:101DA00000384444487F00385454541800087E09D1
:101DB00001020018A4A4A47C007F08040478000099
:101DC000447D4000004080847D00007F1028440056
:101DD0000000417F4000007C04180478007C080467
:101DE000047800384444443800FC242424180018A3
:101DF000242418FC007C080404080048545454208F
:101E000000043F444020003C4040207C001C204017
:101E1000201C003C4030403C004428102844001C5A
:101E2000A0A0A07C004464544C4414141414141452
:101E300000000000000000000000000000000000A2
:101E4000000000F800000000000000333000000037
:101E500000100C06100C060000000000000000003E
:101E600040C07840C0784000043F04043F040400B0
:101E7000007088FC08300000001820FF211E0000C0
:101E8000F008F000E018000000211C031E211E00D5
:101E900000F00888700000001E212324192721105B
:101EA00010160E00000000000000000000000000FE
:101EB000000000E0180402000000000718204000A5
:101EC00000020418E0000000004020180700000095
:101ED000404080F0804040000202010F01020200F9
:101EE000000000F0000000000101011F01010100DD
:101EF000000000000000000080B070000000000042
:101F000000000000000000000001010101010101CA
:101F10000000000000000000003030000000000061
:101F20000000000080601804006018060100000036
:101F300000E010080810E000000F102020100F0033
:101F4000001010F8000000000020203F20200000BA
:101F50000070080808887000003028242221300012
:101F600000300888884830000018202020110E001A
:101F70000000C02010F8000000070424243F2400C3
:101F800000F80888880808000019212020110E0098
:101F900000E0108888180000000F112020110E00AA
:101FA00000380808C83808000000003F00000000A2
:101FB0000070880808887000001C222121221C0063
:101FC00000E010080810E0000000312222110F008C
:101FD000000000C0C0000000000000303000000021
:101FE0000000008000000000000080600000000091
:101FF00000008040201008000001020408102000AA
:1020000040404040404040000404040404040400F4
:102010000008102040800000002010080402010089
:10202000007048080808F000000000303601000089
:10203000C030C828E810E0000718272423140B003C
:102040000000C038E0000000203C230202273820B6
:1020500008F8888888700000203F202020110E009A
:10206000C030080808083800071820202010080091
:1020700008F808080810E000203F202020100F007A
:1020800008F88888E8081000203F20202320180046
:1020900008F88888E8081000203F200003000000AE
:1020A000C03008080838000007182020221E02004F
:1020B00008F808000008F808203F210101213F200E
:1020C000000808F8080800000020203F2020000039
:1020D00000000808F8080800C08080807F00000029
:1020E00008F888C028180800203F20012638200062
:1020F00008F8080000000000203F202020203000C9
:1021000008F8F800F8F80800203F003F003F2000E2
:1021100008F830C00008F808203F200007183F00EA
:10212000E01008080810E0000F10202020100F0019
:1021300008F808080808F000203F2101010100000C
:10214000E01008080810E0000F18242438504F0051
:1021500008F8888888887000203F2000030C302011
:1021600000708808080838000038202121221C004F
:10217000180808F8080818000000203F2000000098
:1021800008F808000008F808001F202020201F0081
:102190000878880000C83808000007380E010000E1
:1021A000F80800F80008F800033C0700073C0300AB
:1021B000081868808068180820302C03032C302011
:1021C0000838C800C83808000000203F2000000080
:1021D00010080808C83808002038262120201800D8
:1021E000000000FE020202000000007F40404000AC
:1021F000000C30C000000000000000010638C000E4
:1022000000020202FE000000004040407F0000008B
:1022100000000402020204000000000000000000B0
:1022200000000000000000008080808080808080AE
:102230000002020400000000000000000000000096
:1022400000008080808000000019242222223F208C
:1022500008F8008080000000003F112020110E00CF
:102260000000008080800000000E1120202011005E
:10227000000000808088F800000E112020103F2010
:102280000000808080800000001F22222222130094
:10229000008080F0888888180020203F20200000DF
:1022A0000000808080808000006B94949493600094
:1022B00008F8008080800000203F210000203F209F
:1022C00000809898000000000020203F202000009F
:1022D000000000809898000000C08080807F00008F
:1022E00008F8000080808000203F24022D3020006C
:1022F000000808F8000000000020203F2020000017
:102300008080808080808000203F20003F20003F30
:102310008080008080800000203F210000203F203E
:102320000000808080800000001F202020201F00EF
:10233000808000808000000080FFA12020110E001E
:102340000000008080808000000E112020A0FF800F
:10235000808080008080800020203F2120000100BC
:102360000000808080808000003324242424190011
:10237000008080E0808000000000001F202000001E
:102380008080000000808000001F202020103F205F
:10239000808080000080808000010E3008060100EF
:1023A00080800080008080800F300C030C300F0094
:1023B00000808000808080000020312E0E312000BF
:1023C000808080000080808080818E7018060100EF
:1023D00000808080808080000021302C222130000D
:1023E00000000000807C020200000000003F40402E
:1023F00000000000FF00000000000000FF000000DF
:102400000002027C800000000040403F000000000D
:1024100000060101020204040000000000000000A8
:102420004024000800000020C80200002801000825
:1024300070250008C8020020280700008401000859
:10244000412D0102030404C009060708090204061D
:102450000833520784A24A04692811000D1440422F
:10246000445840407F40405048C67B4044010213DE
:10247000FF180D0404F4949794F40404E40605068C
:102480000113267F0424443F1C0720400609105FE7
:10249000144042CC19441C94FF9446091221000EAA
:1024A00013201F20484442415F41424448402809CC
:1024B000FC242424FC252624080910410010334064
:1024C000308F80844C55252525554C808080031DF8
:1024D00036361308301BFF200119050411222C2069
:1024E000080F1104040201FF8040300E010618207D
:1024F0004080080D100484844424548F14244484A0
:1025000084BF11234139000C123C4040424C4040F2
:102510007004093128090202C2020202FE8201028D
:1025200012025D4040407F0429010113000C13FC9E
:102530002424E42424222222A362080F1040308F96
:102540008040402314081422414080C0080F10C866
:10255000B88FE88888404848E85F484848601708CE
:102560001808FF0404000822020B1222D20A0600F7
:04000005080000ED02
:00000001FF
